{
  "contractName": "DFund",
  "abi": [
    {
      "anonymous": false,
      "inputs": [
        {
          "indexed": true,
          "internalType": "uint256",
          "name": "id",
          "type": "uint256"
        },
        {
          "indexed": true,
          "internalType": "address",
          "name": "creator",
          "type": "address"
        },
        {
          "indexed": false,
          "internalType": "string",
          "name": "title",
          "type": "string"
        },
        {
          "indexed": false,
          "internalType": "uint256",
          "name": "goalAmount",
          "type": "uint256"
        },
        {
          "indexed": false,
          "internalType": "uint256",
          "name": "deadline",
          "type": "uint256"
        },
        {
          "indexed": false,
          "internalType": "bool",
          "name": "expertReviewRequested",
          "type": "bool"
        }
      ],
      "name": "ProjectRegistered",
      "type": "event"
    },
    {
      "inputs": [
        {
          "internalType": "uint256",
          "name": "",
          "type": "uint256"
        }
      ],
      "name": "projectBalance",
      "outputs": [
        {
          "internalType": "uint256",
          "name": "",
          "type": "uint256"
        }
      ],
      "stateMutability": "view",
      "type": "function",
      "constant": true
    },
    {
      "inputs": [],
      "name": "projectCount",
      "outputs": [
        {
          "internalType": "uint256",
          "name": "",
          "type": "uint256"
        }
      ],
      "stateMutability": "view",
      "type": "function",
      "constant": true
    },
    {
      "inputs": [
        {
          "internalType": "uint256",
          "name": "",
          "type": "uint256"
        }
      ],
      "name": "projects",
      "outputs": [
        {
          "internalType": "uint256",
          "name": "id",
          "type": "uint256"
        },
        {
          "internalType": "address",
          "name": "creator",
          "type": "address"
        },
        {
          "internalType": "string",
          "name": "title",
          "type": "string"
        },
        {
          "internalType": "string",
          "name": "description",
          "type": "string"
        },
        {
          "internalType": "uint256",
          "name": "goalAmount",
          "type": "uint256"
        },
        {
          "internalType": "uint256",
          "name": "deadline",
          "type": "uint256"
        },
        {
          "internalType": "bool",
          "name": "expertReviewRequested",
          "type": "bool"
        },
        {
          "internalType": "bool",
          "name": "isActive",
          "type": "bool"
        },
        {
          "internalType": "enum DFund.ProjectStatus",
          "name": "status",
          "type": "uint8"
        }
      ],
      "stateMutability": "view",
      "type": "function",
      "constant": true
    },
    {
      "inputs": [
        {
          "internalType": "string",
          "name": "_title",
          "type": "string"
        },
        {
          "internalType": "string",
          "name": "_description",
          "type": "string"
        },
        {
          "internalType": "uint256",
          "name": "_goalAmount",
          "type": "uint256"
        },
        {
          "internalType": "uint256",
          "name": "_deadline",
          "type": "uint256"
        },
        {
          "internalType": "bool",
          "name": "_expertReviewRequested",
          "type": "bool"
        }
      ],
      "name": "registerProject",
      "outputs": [],
      "stateMutability": "nonpayable",
      "type": "function"
    },
    {
      "inputs": [
        {
          "internalType": "uint256",
          "name": "_id",
          "type": "uint256"
        }
      ],
      "name": "getProject",
      "outputs": [
        {
          "internalType": "uint256",
          "name": "id",
          "type": "uint256"
        },
        {
          "internalType": "address",
          "name": "creator",
          "type": "address"
        },
        {
          "internalType": "string",
          "name": "title",
          "type": "string"
        },
        {
          "internalType": "string",
          "name": "description",
          "type": "string"
        },
        {
          "internalType": "uint256",
          "name": "goalAmount",
          "type": "uint256"
        },
        {
          "internalType": "uint256",
          "name": "deadline",
          "type": "uint256"
        },
        {
          "internalType": "bool",
          "name": "expertReviewRequested",
          "type": "bool"
        },
        {
          "internalType": "enum DFund.ProjectStatus",
          "name": "status",
          "type": "uint8"
        }
      ],
      "stateMutability": "view",
      "type": "function",
      "constant": true
    },
    {
      "inputs": [],
      "name": "getAllProjects",
      "outputs": [
        {
          "components": [
            {
              "internalType": "uint256",
              "name": "id",
              "type": "uint256"
            },
            {
              "internalType": "address",
              "name": "creator",
              "type": "address"
            },
            {
              "internalType": "string",
              "name": "title",
              "type": "string"
            },
            {
              "internalType": "string",
              "name": "description",
              "type": "string"
            },
            {
              "internalType": "uint256",
              "name": "goalAmount",
              "type": "uint256"
            },
            {
              "internalType": "uint256",
              "name": "deadline",
              "type": "uint256"
            },
            {
              "internalType": "bool",
              "name": "expertReviewRequested",
              "type": "bool"
            },
            {
              "internalType": "bool",
              "name": "isActive",
              "type": "bool"
            },
            {
              "internalType": "enum DFund.ProjectStatus",
              "name": "status",
              "type": "uint8"
            }
          ],
          "internalType": "struct DFund.Project[]",
          "name": "",
          "type": "tuple[]"
        }
      ],
      "stateMutability": "view",
      "type": "function",
      "constant": true
    },
    {
      "inputs": [
        {
          "internalType": "uint256",
          "name": "_projectId",
          "type": "uint256"
        }
      ],
      "name": "donateToProject",
      "outputs": [],
      "stateMutability": "payable",
      "type": "function",
      "payable": true
    }
  ],
  "bytecode": "0x60806040526000805534801561001457600080fd5b50611ccb806100246000396000f3fe6080604052600436106100705760003560e01c806380d038291161004e57806380d0382914610101578063d216deea1461012c578063f0f3f2c814610155578063fb3490781461019957610070565b8063107046bd1461007557806336fbad26146100ba57806356adb06f146100e5575b600080fd5b34801561008157600080fd5b5061009c60048036038101906100979190610e18565b6101d6565b6040516100b199989796959493929190610fb7565b60405180910390f35b3480156100c657600080fd5b506100cf61037b565b6040516100dc9190611052565b60405180910390f35b6100ff60048036038101906100fa9190610e18565b610381565b005b34801561010d57600080fd5b506101166104de565b6040516101239190611281565b60405180910390f35b34801561013857600080fd5b50610153600480360381019061014e9190611404565b6107b6565b005b34801561016157600080fd5b5061017c60048036038101906101779190610e18565b610ac1565b6040516101909897969594939291906114b7565b60405180910390f35b3480156101a557600080fd5b506101c060048036038101906101bb9190610e18565b610d3e565b6040516101cd9190611052565b60405180910390f35b60016020528060005260406000206000915090508060000154908060010160009054906101000a900473ffffffffffffffffffffffffffffffffffffffff169080600201805461022590611572565b80601f016020809104026020016040519081016040528092919081815260200182805461025190611572565b801561029e5780601f106102735761010080835404028352916020019161029e565b820191906000526020600020905b81548152906001019060200180831161028157829003601f168201915b5050505050908060030180546102b390611572565b80601f01602080910402602001604051908101604052809291908181526020018280546102df90611572565b801561032c5780601f106103015761010080835404028352916020019161032c565b820191906000526020600020905b81548152906001019060200180831161030f57829003601f168201915b5050505050908060040154908060050154908060060160009054906101000a900460ff16908060060160019054906101000a900460ff16908060060160029054906101000a900460ff16905089565b60005481565b600034116103c4576040517f08c379a00000000000000000000000000000000000000000000000000000000081526004016103bb906115ef565b60405180910390fd5b6001600082815260200190815260200160002060060160019054906101000a900460ff16610427576040517f08c379a000000000000000000000000000000000000000000000000000000000815260040161041e9061165b565b60405180910390fd5b6000600481111561043b5761043a610f40565b5b6001600083815260200190815260200160002060060160029054906101000a900460ff16600481111561047157610470610f40565b5b146104b1576040517f08c379a00000000000000000000000000000000000000000000000000000000081526004016104a8906116c7565b60405180910390fd5b346002600083815260200190815260200160002060008282546104d49190611716565b9250508190555050565b60606000805467ffffffffffffffff8111156104fd576104fc6112ad565b5b60405190808252806020026020018201604052801561053657816020015b610523610d56565b81526020019060019003908161051b5790505b5090506000600190505b60005481116107ae576001600082815260200190815260200160002060405180610120016040529081600082015481526020016001820160009054906101000a900473ffffffffffffffffffffffffffffffffffffffff1673ffffffffffffffffffffffffffffffffffffffff1673ffffffffffffffffffffffffffffffffffffffff1681526020016002820180546105d890611572565b80601f016020809104026020016040519081016040528092919081815260200182805461060490611572565b80156106515780601f1061062657610100808354040283529160200191610651565b820191906000526020600020905b81548152906001019060200180831161063457829003601f168201915b5050505050815260200160038201805461066a90611572565b80601f016020809104026020016040519081016040528092919081815260200182805461069690611572565b80156106e35780601f106106b8576101008083540402835291602001916106e3565b820191906000526020600020905b8154815290600101906020018083116106c657829003601f168201915b5050505050815260200160048201548152602001600582015481526020016006820160009054906101000a900460ff161515151581526020016006820160019054906101000a900460ff161515151581526020016006820160029054906101000a900460ff16600481111561075b5761075a610f40565b5b600481111561076d5761076c610f40565b5b815250508260018361077f919061174a565b815181106107905761078f61177e565b5b602002602001018190525080806107a6906117ad565b915050610540565b508091505090565b60008551116107fa576040517f08c379a00000000000000000000000000000000000000000000000000000000081526004016107f190611841565b60405180910390fd5b600084511161083e576040517f08c379a0000000000000000000000000000000000000000000000000000000008152600401610835906118ad565b60405180910390fd5b60008311610881576040517f08c379a00000000000000000000000000000000000000000000000000000000081526004016108789061193f565b60405180910390fd5b4282116108c3576040517f08c379a00000000000000000000000000000000000000000000000000000000081526004016108ba906119ab565b60405180910390fd5b6000808154809291906108d5906117ad565b919050555060405180610120016040528060005481526020013373ffffffffffffffffffffffffffffffffffffffff16815260200186815260200185815260200184815260200183815260200182151581526020016001151581526020016000600481111561094757610946610f40565b5b81525060016000805481526020019081526020016000206000820151816000015560208201518160010160006101000a81548173ffffffffffffffffffffffffffffffffffffffff021916908373ffffffffffffffffffffffffffffffffffffffff16021790555060408201518160020190816109c49190611b77565b5060608201518160030190816109da9190611b77565b506080820151816004015560a0820151816005015560c08201518160060160006101000a81548160ff02191690831515021790555060e08201518160060160016101000a81548160ff0219169083151502179055506101008201518160060160026101000a81548160ff02191690836004811115610a5b57610a5a610f40565b5b02179055509050503373ffffffffffffffffffffffffffffffffffffffff166000547f5d98a4da9d3933cce60386248780b2b24866c65e35cc3eac58c332f0df98d7c487868686604051610ab29493929190611c49565b60405180910390a35050505050565b6000806060806000806000806000600160008b815260200190815260200160002060405180610120016040529081600082015481526020016001820160009054906101000a900473ffffffffffffffffffffffffffffffffffffffff1673ffffffffffffffffffffffffffffffffffffffff1673ffffffffffffffffffffffffffffffffffffffff168152602001600282018054610b5e90611572565b80601f0160208091040260200160405190810160405280929190818152602001828054610b8a90611572565b8015610bd75780601f10610bac57610100808354040283529160200191610bd7565b820191906000526020600020905b815481529060010190602001808311610bba57829003601f168201915b50505050508152602001600382018054610bf090611572565b80601f0160208091040260200160405190810160405280929190818152602001828054610c1c90611572565b8015610c695780601f10610c3e57610100808354040283529160200191610c69565b820191906000526020600020905b815481529060010190602001808311610c4c57829003601f168201915b5050505050815260200160048201548152602001600582015481526020016006820160009054906101000a900460ff161515151581526020016006820160019054906101000a900460ff161515151581526020016006820160029054906101000a900460ff166004811115610ce157610ce0610f40565b5b6004811115610cf357610cf2610f40565b5b815250509050806000015181602001518260400151836060015184608001518560a001518660c001518761010001519850985098509850985098509850985050919395975091939597565b60026020528060005260406000206000915090505481565b60405180610120016040528060008152602001600073ffffffffffffffffffffffffffffffffffffffff1681526020016060815260200160608152602001600081526020016000815260200160001515815260200160001515815260200160006004811115610dc857610dc7610f40565b5b81525090565b6000604051905090565b600080fd5b600080fd5b6000819050919050565b610df581610de2565b8114610e0057600080fd5b50565b600081359050610e1281610dec565b92915050565b600060208284031215610e2e57610e2d610dd8565b5b6000610e3c84828501610e03565b91505092915050565b610e4e81610de2565b82525050565b600073ffffffffffffffffffffffffffffffffffffffff82169050919050565b6000610e7f82610e54565b9050919050565b610e8f81610e74565b82525050565b600081519050919050565b600082825260208201905092915050565b60005b83811015610ecf578082015181840152602081019050610eb4565b60008484015250505050565b6000601f19601f8301169050919050565b6000610ef782610e95565b610f018185610ea0565b9350610f11818560208601610eb1565b610f1a81610edb565b840191505092915050565b60008115159050919050565b610f3a81610f25565b82525050565b7f4e487b7100000000000000000000000000000000000000000000000000000000600052602160045260246000fd5b60058110610f8057610f7f610f40565b5b50565b6000819050610f9182610f6f565b919050565b6000610fa182610f83565b9050919050565b610fb181610f96565b82525050565b600061012082019050610fcd600083018c610e45565b610fda602083018b610e86565b8181036040830152610fec818a610eec565b905081810360608301526110008189610eec565b905061100f6080830188610e45565b61101c60a0830187610e45565b61102960c0830186610f31565b61103660e0830185610f31565b611044610100830184610fa8565b9a9950505050505050505050565b60006020820190506110676000830184610e45565b92915050565b600081519050919050565b600082825260208201905092915050565b6000819050602082019050919050565b6110a281610de2565b82525050565b6110b181610e74565b82525050565b600082825260208201905092915050565b60006110d382610e95565b6110dd81856110b7565b93506110ed818560208601610eb1565b6110f681610edb565b840191505092915050565b61110a81610f25565b82525050565b61111981610f96565b82525050565b6000610120830160008301516111386000860182611099565b50602083015161114b60208601826110a8565b506040830151848203604086015261116382826110c8565b9150506060830151848203606086015261117d82826110c8565b91505060808301516111926080860182611099565b5060a08301516111a560a0860182611099565b5060c08301516111b860c0860182611101565b5060e08301516111cb60e0860182611101565b506101008301516111e0610100860182611110565b508091505092915050565b60006111f7838361111f565b905092915050565b6000602082019050919050565b60006112178261106d565b6112218185611078565b93508360208202850161123385611089565b8060005b8581101561126f578484038952815161125085826111eb565b945061125b836111ff565b925060208a01995050600181019050611237565b50829750879550505050505092915050565b6000602082019050818103600083015261129b818461120c565b905092915050565b600080fd5b600080fd5b7f4e487b7100000000000000000000000000000000000000000000000000000000600052604160045260246000fd5b6112e582610edb565b810181811067ffffffffffffffff82111715611304576113036112ad565b5b80604052505050565b6000611317610dce565b905061132382826112dc565b919050565b600067ffffffffffffffff821115611343576113426112ad565b5b61134c82610edb565b9050602081019050919050565b82818337600083830152505050565b600061137b61137684611328565b61130d565b905082815260208101848484011115611397576113966112a8565b5b6113a2848285611359565b509392505050565b600082601f8301126113bf576113be6112a3565b5b81356113cf848260208601611368565b91505092915050565b6113e181610f25565b81146113ec57600080fd5b50565b6000813590506113fe816113d8565b92915050565b600080600080600060a086880312156114205761141f610dd8565b5b600086013567ffffffffffffffff81111561143e5761143d610ddd565b5b61144a888289016113aa565b955050602086013567ffffffffffffffff81111561146b5761146a610ddd565b5b611477888289016113aa565b945050604061148888828901610e03565b935050606061149988828901610e03565b92505060806114aa888289016113ef565b9150509295509295909350565b6000610100820190506114cd600083018b610e45565b6114da602083018a610e86565b81810360408301526114ec8189610eec565b905081810360608301526115008188610eec565b905061150f6080830187610e45565b61151c60a0830186610e45565b61152960c0830185610f31565b61153660e0830184610fa8565b9998505050505050505050565b7f4e487b7100000000000000000000000000000000000000000000000000000000600052602260045260246000fd5b6000600282049050600182168061158a57607f821691505b60208210810361159d5761159c611543565b5b50919050565b7f4d7573742073656e642045544800000000000000000000000000000000000000600082015250565b60006115d9600d83610ea0565b91506115e4826115a3565b602082019050919050565b60006020820190508181036000830152611608816115cc565b9050919050565b7f496e76616c69642070726f6a6563740000000000000000000000000000000000600082015250565b6000611645600f83610ea0565b91506116508261160f565b602082019050919050565b6000602082019050818103600083015261167481611638565b9050919050565b7f50726f6a656374206e6f742066756e6472616973696e67000000000000000000600082015250565b60006116b1601783610ea0565b91506116bc8261167b565b602082019050919050565b600060208201905081810360008301526116e0816116a4565b9050919050565b7f4e487b7100000000000000000000000000000000000000000000000000000000600052601160045260246000fd5b600061172182610de2565b915061172c83610de2565b9250828201905080821115611744576117436116e7565b5b92915050565b600061175582610de2565b915061176083610de2565b9250828203905081811115611778576117776116e7565b5b92915050565b7f4e487b7100000000000000000000000000000000000000000000000000000000600052603260045260246000fd5b60006117b882610de2565b91507fffffffffffffffffffffffffffffffffffffffffffffffffffffffffffffffff82036117ea576117e96116e7565b5b600182019050919050565b7f5469746c652069732072657175697265642e0000000000000000000000000000600082015250565b600061182b601283610ea0565b9150611836826117f5565b602082019050919050565b6000602082019050818103600083015261185a8161181e565b9050919050565b7f4465736372697074696f6e2069732072657175697265642e0000000000000000600082015250565b6000611897601883610ea0565b91506118a282611861565b602082019050919050565b600060208201905081810360008301526118c68161188a565b9050919050565b7f476f616c20616d6f756e74206d7573742062652067726561746572207468616e60008201527f207a65726f2e0000000000000000000000000000000000000000000000000000602082015250565b6000611929602683610ea0565b9150611934826118cd565b604082019050919050565b600060208201905081810360008301526119588161191c565b9050919050565b7f446561646c696e65206d7573742062652061206675747572652074696d652e00600082015250565b6000611995601f83610ea0565b91506119a08261195f565b602082019050919050565b600060208201905081810360008301526119c481611988565b9050919050565b60008190508160005260206000209050919050565b60006020601f8301049050919050565b600082821b905092915050565b600060088302611a2d7fffffffffffffffffffffffffffffffffffffffffffffffffffffffffffffffff826119f0565b611a3786836119f0565b95508019841693508086168417925050509392505050565b6000819050919050565b6000611a74611a6f611a6a84610de2565b611a4f565b610de2565b9050919050565b6000819050919050565b611a8e83611a59565b611aa2611a9a82611a7b565b8484546119fd565b825550505050565b600090565b611ab7611aaa565b611ac2818484611a85565b505050565b5b81811015611ae657611adb600082611aaf565b600181019050611ac8565b5050565b601f821115611b2b57611afc816119cb565b611b05846119e0565b81016020851015611b14578190505b611b28611b20856119e0565b830182611ac7565b50505b505050565b600082821c905092915050565b6000611b4e60001984600802611b30565b1980831691505092915050565b6000611b678383611b3d565b9150826002028217905092915050565b611b8082610e95565b67ffffffffffffffff811115611b9957611b986112ad565b5b611ba38254611572565b611bae828285611aea565b600060209050601f831160018114611be15760008415611bcf578287015190505b611bd98582611b5b565b865550611c41565b601f198416611bef866119cb565b60005b82811015611c1757848901518255600182019150602085019450602081019050611bf2565b86831015611c345784890151611c30601f891682611b3d565b8355505b6001600288020188555050505b505050505050565b60006080820190508181036000830152611c638187610eec565b9050611c726020830186610e45565b611c7f6040830185610e45565b611c8c6060830184610f31565b9594505050505056fea2646970667358221220a5ab51bb2c7158cc41e7ef215de645e556e68350e0756097004e2ce7045b5af164736f6c63430008130033",
  "immutableReferences": {},
  "source": "// SPDX-License-Identifier: MIT\r\npragma solidity ^0.8.19;\r\n\r\ncontract DFund {\r\n    uint public projectCount = 0;   //    \r\n\r\n    enum ProjectStatus {    //   \r\n        FUNDRAISING,   // 0:  \r\n        IN_PROGRESS,    // 1:   \r\n        COMPLETED,     // 2:   \r\n        FAILED,        // 3:  (   )\r\n        CANCELLED      // 4:  \r\n    }\r\n\r\n    struct Project {    //   \r\n        uint id;\r\n        address creator;\r\n        string title;\r\n        string description;\r\n        uint goalAmount;              // : wei\r\n        uint deadline;                // Unix timestamp\r\n        bool expertReviewRequested;\r\n        bool isActive;\r\n        ProjectStatus status;\r\n    }\r\n\r\n    mapping(uint => Project) public projects;\r\n    mapping(uint => uint) public projectBalance;\r\n\r\n    //   \r\n    event ProjectRegistered(\r\n        uint indexed id,\r\n        address indexed creator,\r\n        string title,\r\n        uint goalAmount,\r\n        uint deadline,\r\n        bool expertReviewRequested\r\n    );\r\n\r\n    //  \r\n    function registerProject(\r\n        string memory _title,\r\n        string memory _description,\r\n        uint _goalAmount,\r\n        uint _deadline,\r\n        bool _expertReviewRequested\r\n    ) public {\r\n        //     \r\n        require(bytes(_title).length > 0, \"Title is required.\");\r\n        require(bytes(_description).length > 0, \"Description is required.\");\r\n        require(_goalAmount > 0, \"Goal amount must be greater than zero.\");\r\n        require(_deadline > block.timestamp, \"Deadline must be a future time.\");\r\n\r\n        projectCount++;\r\n\r\n        projects[projectCount] = Project({\r\n            id: projectCount,\r\n            creator: msg.sender,\r\n            title: _title,\r\n            description: _description,\r\n            goalAmount: _goalAmount,\r\n            deadline: _deadline,\r\n            expertReviewRequested: _expertReviewRequested,\r\n            isActive: true,\r\n            status: ProjectStatus.FUNDRAISING   //      \r\n        });\r\n\r\n        emit ProjectRegistered(\r\n            projectCount,\r\n            msg.sender,\r\n            _title,\r\n            _goalAmount,\r\n            _deadline,\r\n            _expertReviewRequested\r\n        );\r\n    }\r\n\r\n    //  ID   \r\n    function getProject(uint _id) public view returns (\r\n    uint id,\r\n    address creator,\r\n    string memory title,\r\n    string memory description,\r\n    uint goalAmount,\r\n    uint deadline,\r\n    bool expertReviewRequested,\r\n    ProjectStatus status\r\n    ) {\r\n        Project memory p = projects[_id];\r\n        return (\r\n            p.id,\r\n            p.creator,\r\n            p.title,\r\n            p.description,\r\n            p.goalAmount,\r\n            p.deadline,\r\n            p.expertReviewRequested,\r\n            p.status\r\n        );\r\n    }\r\n\r\n    //   \r\n    function getAllProjects() public view returns (Project[] memory) {\r\n        Project[] memory result = new Project[](projectCount);\r\n        for (uint i = 1; i <= projectCount; i++) {\r\n            result[i - 1] = projects[i];\r\n        }\r\n        return result;\r\n    }\r\n\r\n    //  \r\n    function donateToProject(uint _projectId) external payable {\r\n        require(msg.value > 0, \"Must send ETH\");\r\n        require(projects[_projectId].isActive, \"Invalid project\");\r\n        require(projects[_projectId].status == ProjectStatus.FUNDRAISING, \"Project not fundraising\");\r\n\r\n        projectBalance[_projectId] += msg.value;\r\n    }\r\n\r\n    //              . ,   .\r\n    //          .\r\n    // ,     (:  1%) ,\r\n    //           ?\r\n\r\n    //        /utils/statusUtils.js   .\r\n    //   ,   ProjectDetail.js        .\r\n\r\n}\r\n",
  "sourcePath": "C:\\DApp\\bsb\\D-Fund\\src\\contracts\\DFund.sol",
  "compiler": {
    "name": "solc",
    "version": "0.8.19+commit.7dd6d404.Emscripten.clang"
  },
  "schemaVersion": "3.4.16",
  "updatedAt": "2025-05-15T10:47:36.109Z",
  "networkType": "ethereum",
  "devdoc": {
    "kind": "dev",
    "methods": {},
    "version": 1
  },
  "userdoc": {
    "kind": "user",
    "methods": {},
    "version": 1
  }
}