{
  "contractName": "DFund",
  "abi": [
    {
      "anonymous": false,
      "inputs": [
        {
          "indexed": true,
          "internalType": "uint256",
          "name": "id",
          "type": "uint256"
        },
        {
          "indexed": true,
          "internalType": "address",
          "name": "creator",
          "type": "address"
        },
        {
          "indexed": false,
          "internalType": "string",
          "name": "title",
          "type": "string"
        },
        {
          "indexed": false,
          "internalType": "uint256",
          "name": "goalAmount",
          "type": "uint256"
        },
        {
          "indexed": false,
          "internalType": "uint256",
          "name": "deadline",
          "type": "uint256"
        },
        {
          "indexed": false,
          "internalType": "bool",
          "name": "expertReviewRequested",
          "type": "bool"
        }
      ],
      "name": "ProjectRegistered",
      "type": "event"
    },
    {
      "inputs": [
        {
          "internalType": "uint256",
          "name": "",
          "type": "uint256"
        },
        {
          "internalType": "address",
          "name": "",
          "type": "address"
        }
      ],
      "name": "donorBalances",
      "outputs": [
        {
          "internalType": "uint256",
          "name": "",
          "type": "uint256"
        }
      ],
      "stateMutability": "view",
      "type": "function",
      "constant": true
    },
    {
      "inputs": [
        {
          "internalType": "uint256",
          "name": "",
          "type": "uint256"
        },
        {
          "internalType": "address",
          "name": "",
          "type": "address"
        }
      ],
      "name": "hasDonated",
      "outputs": [
        {
          "internalType": "bool",
          "name": "",
          "type": "bool"
        }
      ],
      "stateMutability": "view",
      "type": "function",
      "constant": true
    },
    {
      "inputs": [],
      "name": "projectCount",
      "outputs": [
        {
          "internalType": "uint256",
          "name": "",
          "type": "uint256"
        }
      ],
      "stateMutability": "view",
      "type": "function",
      "constant": true
    },
    {
      "inputs": [
        {
          "internalType": "uint256",
          "name": "",
          "type": "uint256"
        },
        {
          "internalType": "uint256",
          "name": "",
          "type": "uint256"
        }
      ],
      "name": "projectDonors",
      "outputs": [
        {
          "internalType": "address",
          "name": "",
          "type": "address"
        }
      ],
      "stateMutability": "view",
      "type": "function",
      "constant": true
    },
    {
      "inputs": [
        {
          "internalType": "uint256",
          "name": "",
          "type": "uint256"
        }
      ],
      "name": "projectFunds",
      "outputs": [
        {
          "internalType": "uint256",
          "name": "totalDonated",
          "type": "uint256"
        },
        {
          "internalType": "uint256",
          "name": "transferredToCreator",
          "type": "uint256"
        }
      ],
      "stateMutability": "view",
      "type": "function",
      "constant": true
    },
    {
      "inputs": [
        {
          "internalType": "uint256",
          "name": "",
          "type": "uint256"
        }
      ],
      "name": "projects",
      "outputs": [
        {
          "internalType": "uint256",
          "name": "id",
          "type": "uint256"
        },
        {
          "internalType": "address",
          "name": "creator",
          "type": "address"
        },
        {
          "internalType": "string",
          "name": "title",
          "type": "string"
        },
        {
          "internalType": "string",
          "name": "description",
          "type": "string"
        },
        {
          "internalType": "uint256",
          "name": "goalAmount",
          "type": "uint256"
        },
        {
          "internalType": "uint256",
          "name": "deadline",
          "type": "uint256"
        },
        {
          "internalType": "bool",
          "name": "expertReviewRequested",
          "type": "bool"
        },
        {
          "internalType": "bool",
          "name": "isActive",
          "type": "bool"
        },
        {
          "internalType": "enum DFund.ProjectStatus",
          "name": "status",
          "type": "uint8"
        }
      ],
      "stateMutability": "view",
      "type": "function",
      "constant": true
    },
    {
      "inputs": [
        {
          "internalType": "string",
          "name": "_title",
          "type": "string"
        },
        {
          "internalType": "string",
          "name": "_description",
          "type": "string"
        },
        {
          "internalType": "uint256",
          "name": "_goalAmount",
          "type": "uint256"
        },
        {
          "internalType": "uint256",
          "name": "_deadline",
          "type": "uint256"
        },
        {
          "internalType": "bool",
          "name": "_expertReviewRequested",
          "type": "bool"
        }
      ],
      "name": "registerProject",
      "outputs": [],
      "stateMutability": "nonpayable",
      "type": "function"
    },
    {
      "inputs": [
        {
          "internalType": "uint256",
          "name": "_id",
          "type": "uint256"
        }
      ],
      "name": "getProject",
      "outputs": [
        {
          "internalType": "uint256",
          "name": "id",
          "type": "uint256"
        },
        {
          "internalType": "address",
          "name": "creator",
          "type": "address"
        },
        {
          "internalType": "string",
          "name": "title",
          "type": "string"
        },
        {
          "internalType": "string",
          "name": "description",
          "type": "string"
        },
        {
          "internalType": "uint256",
          "name": "goalAmount",
          "type": "uint256"
        },
        {
          "internalType": "uint256",
          "name": "deadline",
          "type": "uint256"
        },
        {
          "internalType": "bool",
          "name": "expertReviewRequested",
          "type": "bool"
        },
        {
          "internalType": "enum DFund.ProjectStatus",
          "name": "status",
          "type": "uint8"
        }
      ],
      "stateMutability": "view",
      "type": "function",
      "constant": true
    },
    {
      "inputs": [],
      "name": "getAllProjects",
      "outputs": [
        {
          "components": [
            {
              "internalType": "uint256",
              "name": "id",
              "type": "uint256"
            },
            {
              "internalType": "address",
              "name": "creator",
              "type": "address"
            },
            {
              "internalType": "string",
              "name": "title",
              "type": "string"
            },
            {
              "internalType": "string",
              "name": "description",
              "type": "string"
            },
            {
              "internalType": "uint256",
              "name": "goalAmount",
              "type": "uint256"
            },
            {
              "internalType": "uint256",
              "name": "deadline",
              "type": "uint256"
            },
            {
              "internalType": "bool",
              "name": "expertReviewRequested",
              "type": "bool"
            },
            {
              "internalType": "bool",
              "name": "isActive",
              "type": "bool"
            },
            {
              "internalType": "enum DFund.ProjectStatus",
              "name": "status",
              "type": "uint8"
            }
          ],
          "internalType": "struct DFund.Project[]",
          "name": "",
          "type": "tuple[]"
        }
      ],
      "stateMutability": "view",
      "type": "function",
      "constant": true
    },
    {
      "inputs": [
        {
          "internalType": "uint256",
          "name": "_projectId",
          "type": "uint256"
        }
      ],
      "name": "donateToProject",
      "outputs": [],
      "stateMutability": "payable",
      "type": "function",
      "payable": true
    },
    {
      "inputs": [
        {
          "internalType": "uint256",
          "name": "_projectId",
          "type": "uint256"
        },
        {
          "internalType": "uint256",
          "name": "_percent",
          "type": "uint256"
        }
      ],
      "name": "releaseFundsToCreator",
      "outputs": [],
      "stateMutability": "nonpayable",
      "type": "function"
    },
    {
      "inputs": [
        {
          "internalType": "uint256",
          "name": "_projectId",
          "type": "uint256"
        },
        {
          "internalType": "address",
          "name": "_donor",
          "type": "address"
        }
      ],
      "name": "getDonorBalance",
      "outputs": [
        {
          "internalType": "uint256",
          "name": "",
          "type": "uint256"
        }
      ],
      "stateMutability": "view",
      "type": "function",
      "constant": true
    },
    {
      "inputs": [
        {
          "internalType": "uint256",
          "name": "_projectId",
          "type": "uint256"
        }
      ],
      "name": "getTotalDonated",
      "outputs": [
        {
          "internalType": "uint256",
          "name": "",
          "type": "uint256"
        }
      ],
      "stateMutability": "view",
      "type": "function",
      "constant": true
    },
    {
      "inputs": [
        {
          "internalType": "uint256",
          "name": "_projectId",
          "type": "uint256"
        }
      ],
      "name": "getRemainingFunds",
      "outputs": [
        {
          "internalType": "uint256",
          "name": "",
          "type": "uint256"
        }
      ],
      "stateMutability": "view",
      "type": "function",
      "constant": true
    },
    {
      "inputs": [
        {
          "internalType": "uint256",
          "name": "_projectId",
          "type": "uint256"
        },
        {
          "internalType": "uint8",
          "name": "newStatus",
          "type": "uint8"
        }
      ],
      "name": "changeProjectStatusAndRefund",
      "outputs": [],
      "stateMutability": "nonpayable",
      "type": "function"
    }
  ],
  "bytecode": "0x60806040526000805534801561001457600080fd5b50612f70806100246000396000f3fe6080604052600436106100e85760003560e01c8063794d55601161008a578063c8c2dec411610059578063c8c2dec414610328578063d216deea14610365578063ed043e3e1461038e578063f0f3f2c8146103cb576100e8565b8063794d55601461025957806380d0382914610297578063a3739f71146102c2578063b1d9fddb146102ff576100e8565b8063485ff82a116100c6578063485ff82a1461019a57806350fadbe0146101d757806352ce77a41461021457806356adb06f1461023d576100e8565b8063107046bd146100ed5780631e1553981461013257806336fbad261461016f575b600080fd5b3480156100f957600080fd5b50610114600480360381019061010f9190611ba3565b61040f565b60405161012999989796959493929190611d42565b60405180910390f35b34801561013e57600080fd5b5061015960048036038101906101549190611e09565b6105b4565b6040516101669190611e49565b60405180910390f35b34801561017b57600080fd5b506101846105e3565b6040516101919190611e64565b60405180910390f35b3480156101a657600080fd5b506101c160048036038101906101bc9190611e7f565b6105e9565b6040516101ce9190611ebf565b60405180910390f35b3480156101e357600080fd5b506101fe60048036038101906101f99190611ba3565b610637565b60405161020b9190611e64565b60405180910390f35b34801561022057600080fd5b5061023b60048036038101906102369190611f13565b61068a565b005b61025760048036038101906102529190611ba3565b610a3e565b005b34801561026557600080fd5b50610280600480360381019061027b9190611ba3565b610d45565b60405161028e929190611f53565b60405180910390f35b3480156102a357600080fd5b506102ac610d69565b6040516102b99190612190565b60405180910390f35b3480156102ce57600080fd5b506102e960048036038101906102e49190611ba3565b611041565b6040516102f69190611e64565b60405180910390f35b34801561030b57600080fd5b5061032660048036038101906103219190611e7f565b611061565b005b34801561033457600080fd5b5061034f600480360381019061034a9190611e09565b6114d9565b60405161035c9190611e64565b60405180910390f35b34801561037157600080fd5b5061038c60048036038101906103879190612313565b6114fe565b005b34801561039a57600080fd5b506103b560048036038101906103b09190611e09565b611809565b6040516103c29190611e64565b60405180910390f35b3480156103d757600080fd5b506103f260048036038101906103ed9190611ba3565b611864565b6040516104069897969594939291906123c6565b60405180910390f35b60016020528060005260406000206000915090508060000154908060010160009054906101000a900473ffffffffffffffffffffffffffffffffffffffff169080600201805461045e90612481565b80601f016020809104026020016040519081016040528092919081815260200182805461048a90612481565b80156104d75780601f106104ac576101008083540402835291602001916104d7565b820191906000526020600020905b8154815290600101906020018083116104ba57829003601f168201915b5050505050908060030180546104ec90612481565b80601f016020809104026020016040519081016040528092919081815260200182805461051890612481565b80156105655780601f1061053a57610100808354040283529160200191610565565b820191906000526020600020905b81548152906001019060200180831161054857829003601f168201915b5050505050908060040154908060050154908060060160009054906101000a900460ff16908060060160019054906101000a900460ff16908060060160029054906101000a900460ff16905089565b60056020528160005260406000206020528060005260406000206000915091509054906101000a900460ff1681565b60005481565b6004602052816000526040600020818154811061060557600080fd5b906000526020600020016000915091509054906101000a900473ffffffffffffffffffffffffffffffffffffffff1681565b600080600260008481526020019081526020016000206040518060400160405290816000820154815260200160018201548152505090508060200151816000015161068291906124e1565b915050919050565b6003600481111561069e5761069d611ccb565b5b60ff168160ff1614806106c857506004808111156106bf576106be611ccb565b5b60ff168160ff16145b610707576040517f08c379a00000000000000000000000000000000000000000000000000000000081526004016106fe90612561565b60405180910390fd5b60006001600084815260200190815260200160002090508060010160009054906101000a900473ffffffffffffffffffffffffffffffffffffffff1673ffffffffffffffffffffffffffffffffffffffff163373ffffffffffffffffffffffffffffffffffffffff16146107b0576040517f08c379a00000000000000000000000000000000000000000000000000000000081526004016107a7906125cd565b60405180910390fd5b8060060160019054906101000a900460ff16610801576040517f08c379a00000000000000000000000000000000000000000000000000000000081526004016107f890612639565b60405180910390fd5b8160ff16600481111561081757610816611ccb565b5b8160060160026101000a81548160ff0219169083600481111561083d5761083c611ccb565b5b021790555060008160060160016101000a81548160ff0219169083151502179055506000600460008581526020019081526020016000208054806020026020016040519081016040528092919081815260200182805480156108f457602002820191906000526020600020905b8160009054906101000a900473ffffffffffffffffffffffffffffffffffffffff1673ffffffffffffffffffffffffffffffffffffffff16815260200190600101908083116108aa575b5050505050905060005b8151811015610a3757600082828151811061091c5761091b612659565b5b6020026020010151905060006003600088815260200190815260200160002060008373ffffffffffffffffffffffffffffffffffffffff1673ffffffffffffffffffffffffffffffffffffffff1681526020019081526020016000205490506000811115610a225760006003600089815260200190815260200160002060008473ffffffffffffffffffffffffffffffffffffffff1673ffffffffffffffffffffffffffffffffffffffff168152602001908152602001600020819055508173ffffffffffffffffffffffffffffffffffffffff166108fc829081150290604051600060405180830381858888f19350505050158015610a20573d6000803e3d6000fd5b505b50508080610a2f90612688565b9150506108fe565b5050505050565b60003411610a81576040517f08c379a0000000000000000000000000000000000000000000000000000000008152600401610a789061271c565b60405180910390fd5b6001600082815260200190815260200160002060060160019054906101000a900460ff16610ae4576040517f08c379a0000000000000000000000000000000000000000000000000000000008152600401610adb90612788565b60405180910390fd5b60006004811115610af857610af7611ccb565b5b6001600083815260200190815260200160002060060160029054906101000a900460ff166004811115610b2e57610b2d611ccb565b5b14610b6e576040517f08c379a0000000000000000000000000000000000000000000000000000000008152600401610b65906127f4565b60405180910390fd5b346003600083815260200190815260200160002060003373ffffffffffffffffffffffffffffffffffffffff1673ffffffffffffffffffffffffffffffffffffffff1681526020019081526020016000206000828254610bce9190612814565b9250508190555034600260008381526020019081526020016000206000016000828254610bfb9190612814565b925050819055506005600082815260200190815260200160002060003373ffffffffffffffffffffffffffffffffffffffff1673ffffffffffffffffffffffffffffffffffffffff16815260200190815260200160002060009054906101000a900460ff16610d425760046000828152602001908152602001600020339080600181540180825580915050600190039060005260206000200160009091909190916101000a81548173ffffffffffffffffffffffffffffffffffffffff021916908373ffffffffffffffffffffffffffffffffffffffff16021790555060016005600083815260200190815260200160002060003373ffffffffffffffffffffffffffffffffffffffff1673ffffffffffffffffffffffffffffffffffffffff16815260200190815260200160002060006101000a81548160ff0219169083151502179055505b50565b60026020528060005260406000206000915090508060000154908060010154905082565b60606000805467ffffffffffffffff811115610d8857610d876121bc565b5b604051908082528060200260200182016040528015610dc157816020015b610dae611ae1565b815260200190600190039081610da65790505b5090506000600190505b6000548111611039576001600082815260200190815260200160002060405180610120016040529081600082015481526020016001820160009054906101000a900473ffffffffffffffffffffffffffffffffffffffff1673ffffffffffffffffffffffffffffffffffffffff1673ffffffffffffffffffffffffffffffffffffffff168152602001600282018054610e6390612481565b80601f0160208091040260200160405190810160405280929190818152602001828054610e8f90612481565b8015610edc5780601f10610eb157610100808354040283529160200191610edc565b820191906000526020600020905b815481529060010190602001808311610ebf57829003601f168201915b50505050508152602001600382018054610ef590612481565b80601f0160208091040260200160405190810160405280929190818152602001828054610f2190612481565b8015610f6e5780601f10610f4357610100808354040283529160200191610f6e565b820191906000526020600020905b815481529060010190602001808311610f5157829003601f168201915b5050505050815260200160048201548152602001600582015481526020016006820160009054906101000a900460ff161515151581526020016006820160019054906101000a900460ff161515151581526020016006820160029054906101000a900460ff166004811115610fe657610fe5611ccb565b5b6004811115610ff857610ff7611ccb565b5b815250508260018361100a91906124e1565b8151811061101b5761101a612659565b5b6020026020010181905250808061103190612688565b915050610dcb565b508091505090565b600060026000838152602001908152602001600020600001549050919050565b60648111156110a5576040517f08c379a000000000000000000000000000000000000000000000000000000000815260040161109c90612894565b60405180910390fd5b60006001600084815260200190815260200160002090503373ffffffffffffffffffffffffffffffffffffffff168160010160009054906101000a900473ffffffffffffffffffffffffffffffffffffffff1673ffffffffffffffffffffffffffffffffffffffff161461114e576040517f08c379a000000000000000000000000000000000000000000000000000000000815260040161114590612900565b60405180910390fd5b600060026000858152602001908152602001600020905060008160010154826000015461117b91906124e1565b9050600081116111c0576040517f08c379a00000000000000000000000000000000000000000000000000000000081526004016111b79061296c565b60405180910390fd5b6000606485836111d0919061298c565b6111da91906129fd565b90506000811161121f576040517f08c379a000000000000000000000000000000000000000000000000000000000815260040161121690612a7a565b60405180910390fd5b6000600460008881526020019081526020016000208054806020026020016040519081016040528092919081815260200182805480156112b457602002820191906000526020600020905b8160009054906101000a900473ffffffffffffffffffffffffffffffffffffffff1673ffffffffffffffffffffffffffffffffffffffff168152602001906001019080831161126a575b5050505050905060005b81518110156113de5760008282815181106112dc576112db612659565b5b602002602001015190506000600360008b815260200190815260200160002060008373ffffffffffffffffffffffffffffffffffffffff1673ffffffffffffffffffffffffffffffffffffffff16815260200190815260200160002054905060008111156113c957600060648a83611354919061298c565b61135e91906129fd565b905080600360008d815260200190815260200160002060008573ffffffffffffffffffffffffffffffffffffffff1673ffffffffffffffffffffffffffffffffffffffff16815260200190815260200160002060008282546113c091906124e1565b92505081905550505b505080806113d690612688565b9150506112be565b50600160048111156113f3576113f2611ccb565b5b8560060160029054906101000a900460ff16600481111561141757611416611ccb565b5b1461144a5760018560060160026101000a81548160ff0219169083600481111561144457611443611ccb565b5b02179055505b8184600101600082825461145e9190612814565b925050819055508460010160009054906101000a900473ffffffffffffffffffffffffffffffffffffffff1673ffffffffffffffffffffffffffffffffffffffff166108fc839081150290604051600060405180830381858888f193505050501580156114cf573d6000803e3d6000fd5b5050505050505050565b6003602052816000526040600020602052806000526040600020600091509150505481565b6000855111611542576040517f08c379a000000000000000000000000000000000000000000000000000000000815260040161153990612ae6565b60405180910390fd5b6000845111611586576040517f08c379a000000000000000000000000000000000000000000000000000000000815260040161157d90612b52565b60405180910390fd5b600083116115c9576040517f08c379a00000000000000000000000000000000000000000000000000000000081526004016115c090612be4565b60405180910390fd5b42821161160b576040517f08c379a000000000000000000000000000000000000000000000000000000000815260040161160290612c50565b60405180910390fd5b60008081548092919061161d90612688565b919050555060405180610120016040528060005481526020013373ffffffffffffffffffffffffffffffffffffffff16815260200186815260200185815260200184815260200183815260200182151581526020016001151581526020016000600481111561168f5761168e611ccb565b5b81525060016000805481526020019081526020016000206000820151816000015560208201518160010160006101000a81548173ffffffffffffffffffffffffffffffffffffffff021916908373ffffffffffffffffffffffffffffffffffffffff160217905550604082015181600201908161170c9190612e1c565b5060608201518160030190816117229190612e1c565b506080820151816004015560a0820151816005015560c08201518160060160006101000a81548160ff02191690831515021790555060e08201518160060160016101000a81548160ff0219169083151502179055506101008201518160060160026101000a81548160ff021916908360048111156117a3576117a2611ccb565b5b02179055509050503373ffffffffffffffffffffffffffffffffffffffff166000547f5d98a4da9d3933cce60386248780b2b24866c65e35cc3eac58c332f0df98d7c4878686866040516117fa9493929190612eee565b60405180910390a35050505050565b60006003600084815260200190815260200160002060008373ffffffffffffffffffffffffffffffffffffffff1673ffffffffffffffffffffffffffffffffffffffff16815260200190815260200160002054905092915050565b6000806060806000806000806000600160008b815260200190815260200160002060405180610120016040529081600082015481526020016001820160009054906101000a900473ffffffffffffffffffffffffffffffffffffffff1673ffffffffffffffffffffffffffffffffffffffff1673ffffffffffffffffffffffffffffffffffffffff16815260200160028201805461190190612481565b80601f016020809104026020016040519081016040528092919081815260200182805461192d90612481565b801561197a5780601f1061194f5761010080835404028352916020019161197a565b820191906000526020600020905b81548152906001019060200180831161195d57829003601f168201915b5050505050815260200160038201805461199390612481565b80601f01602080910402602001604051908101604052809291908181526020018280546119bf90612481565b8015611a0c5780601f106119e157610100808354040283529160200191611a0c565b820191906000526020600020905b8154815290600101906020018083116119ef57829003601f168201915b5050505050815260200160048201548152602001600582015481526020016006820160009054906101000a900460ff161515151581526020016006820160019054906101000a900460ff161515151581526020016006820160029054906101000a900460ff166004811115611a8457611a83611ccb565b5b6004811115611a9657611a95611ccb565b5b815250509050806000015181602001518260400151836060015184608001518560a001518660c001518761010001519850985098509850985098509850985050919395975091939597565b60405180610120016040528060008152602001600073ffffffffffffffffffffffffffffffffffffffff1681526020016060815260200160608152602001600081526020016000815260200160001515815260200160001515815260200160006004811115611b5357611b52611ccb565b5b81525090565b6000604051905090565b600080fd5b600080fd5b6000819050919050565b611b8081611b6d565b8114611b8b57600080fd5b50565b600081359050611b9d81611b77565b92915050565b600060208284031215611bb957611bb8611b63565b5b6000611bc784828501611b8e565b91505092915050565b611bd981611b6d565b82525050565b600073ffffffffffffffffffffffffffffffffffffffff82169050919050565b6000611c0a82611bdf565b9050919050565b611c1a81611bff565b82525050565b600081519050919050565b600082825260208201905092915050565b60005b83811015611c5a578082015181840152602081019050611c3f565b60008484015250505050565b6000601f19601f8301169050919050565b6000611c8282611c20565b611c8c8185611c2b565b9350611c9c818560208601611c3c565b611ca581611c66565b840191505092915050565b60008115159050919050565b611cc581611cb0565b82525050565b7f4e487b7100000000000000000000000000000000000000000000000000000000600052602160045260246000fd5b60058110611d0b57611d0a611ccb565b5b50565b6000819050611d1c82611cfa565b919050565b6000611d2c82611d0e565b9050919050565b611d3c81611d21565b82525050565b600061012082019050611d58600083018c611bd0565b611d65602083018b611c11565b8181036040830152611d77818a611c77565b90508181036060830152611d8b8189611c77565b9050611d9a6080830188611bd0565b611da760a0830187611bd0565b611db460c0830186611cbc565b611dc160e0830185611cbc565b611dcf610100830184611d33565b9a9950505050505050505050565b611de681611bff565b8114611df157600080fd5b50565b600081359050611e0381611ddd565b92915050565b60008060408385031215611e2057611e1f611b63565b5b6000611e2e85828601611b8e565b9250506020611e3f85828601611df4565b9150509250929050565b6000602082019050611e5e6000830184611cbc565b92915050565b6000602082019050611e796000830184611bd0565b92915050565b60008060408385031215611e9657611e95611b63565b5b6000611ea485828601611b8e565b9250506020611eb585828601611b8e565b9150509250929050565b6000602082019050611ed46000830184611c11565b92915050565b600060ff82169050919050565b611ef081611eda565b8114611efb57600080fd5b50565b600081359050611f0d81611ee7565b92915050565b60008060408385031215611f2a57611f29611b63565b5b6000611f3885828601611b8e565b9250506020611f4985828601611efe565b9150509250929050565b6000604082019050611f686000830185611bd0565b611f756020830184611bd0565b9392505050565b600081519050919050565b600082825260208201905092915050565b6000819050602082019050919050565b611fb181611b6d565b82525050565b611fc081611bff565b82525050565b600082825260208201905092915050565b6000611fe282611c20565b611fec8185611fc6565b9350611ffc818560208601611c3c565b61200581611c66565b840191505092915050565b61201981611cb0565b82525050565b61202881611d21565b82525050565b6000610120830160008301516120476000860182611fa8565b50602083015161205a6020860182611fb7565b50604083015184820360408601526120728282611fd7565b9150506060830151848203606086015261208c8282611fd7565b91505060808301516120a16080860182611fa8565b5060a08301516120b460a0860182611fa8565b5060c08301516120c760c0860182612010565b5060e08301516120da60e0860182612010565b506101008301516120ef61010086018261201f565b508091505092915050565b6000612106838361202e565b905092915050565b6000602082019050919050565b600061212682611f7c565b6121308185611f87565b93508360208202850161214285611f98565b8060005b8581101561217e578484038952815161215f85826120fa565b945061216a8361210e565b925060208a01995050600181019050612146565b50829750879550505050505092915050565b600060208201905081810360008301526121aa818461211b565b905092915050565b600080fd5b600080fd5b7f4e487b7100000000000000000000000000000000000000000000000000000000600052604160045260246000fd5b6121f482611c66565b810181811067ffffffffffffffff82111715612213576122126121bc565b5b80604052505050565b6000612226611b59565b905061223282826121eb565b919050565b600067ffffffffffffffff821115612252576122516121bc565b5b61225b82611c66565b9050602081019050919050565b82818337600083830152505050565b600061228a61228584612237565b61221c565b9050828152602081018484840111156122a6576122a56121b7565b5b6122b1848285612268565b509392505050565b600082601f8301126122ce576122cd6121b2565b5b81356122de848260208601612277565b91505092915050565b6122f081611cb0565b81146122fb57600080fd5b50565b60008135905061230d816122e7565b92915050565b600080600080600060a0868803121561232f5761232e611b63565b5b600086013567ffffffffffffffff81111561234d5761234c611b68565b5b612359888289016122b9565b955050602086013567ffffffffffffffff81111561237a57612379611b68565b5b612386888289016122b9565b945050604061239788828901611b8e565b93505060606123a888828901611b8e565b92505060806123b9888289016122fe565b9150509295509295909350565b6000610100820190506123dc600083018b611bd0565b6123e9602083018a611c11565b81810360408301526123fb8189611c77565b9050818103606083015261240f8188611c77565b905061241e6080830187611bd0565b61242b60a0830186611bd0565b61243860c0830185611cbc565b61244560e0830184611d33565b9998505050505050505050565b7f4e487b7100000000000000000000000000000000000000000000000000000000600052602260045260246000fd5b6000600282049050600182168061249957607f821691505b6020821081036124ac576124ab612452565b5b50919050565b7f4e487b7100000000000000000000000000000000000000000000000000000000600052601160045260246000fd5b60006124ec82611b6d565b91506124f783611b6d565b925082820390508181111561250f5761250e6124b2565b5b92915050565b7f4f6e6c79204641494c4544206f722043414e43454c4c454420616c6c6f776564600082015250565b600061254b602083611c2b565b915061255682612515565b602082019050919050565b6000602082019050818103600083015261257a8161253e565b9050919050565b7f4f6e6c792063726561746f722063616e206368616e6765207374617475730000600082015250565b60006125b7601e83611c2b565b91506125c282612581565b602082019050919050565b600060208201905081810360008301526125e6816125aa565b9050919050565b7f50726f6a65637420616c726561647920696e6163746976650000000000000000600082015250565b6000612623601883611c2b565b915061262e826125ed565b602082019050919050565b6000602082019050818103600083015261265281612616565b9050919050565b7f4e487b7100000000000000000000000000000000000000000000000000000000600052603260045260246000fd5b600061269382611b6d565b91507fffffffffffffffffffffffffffffffffffffffffffffffffffffffffffffffff82036126c5576126c46124b2565b5b600182019050919050565b7f4d7573742073656e642045544800000000000000000000000000000000000000600082015250565b6000612706600d83611c2b565b9150612711826126d0565b602082019050919050565b60006020820190508181036000830152612735816126f9565b9050919050565b7f496e76616c69642070726f6a6563740000000000000000000000000000000000600082015250565b6000612772600f83611c2b565b915061277d8261273c565b602082019050919050565b600060208201905081810360008301526127a181612765565b9050919050565b7f50726f6a656374206e6f742066756e6472616973696e67000000000000000000600082015250565b60006127de601783611c2b565b91506127e9826127a8565b602082019050919050565b6000602082019050818103600083015261280d816127d1565b9050919050565b600061281f82611b6d565b915061282a83611b6d565b9250828201905080821115612842576128416124b2565b5b92915050565b7f496e76616c69642070657263656e746167650000000000000000000000000000600082015250565b600061287e601283611c2b565b915061288982612848565b602082019050919050565b600060208201905081810360008301526128ad81612871565b9050919050565b7f4f6e6c792063726561746f722063616e20776974686472617700000000000000600082015250565b60006128ea601983611c2b565b91506128f5826128b4565b602082019050919050565b60006020820190508181036000830152612919816128dd565b9050919050565b7f4e6f20617661696c61626c652066756e64730000000000000000000000000000600082015250565b6000612956601283611c2b565b915061296182612920565b602082019050919050565b6000602082019050818103600083015261298581612949565b9050919050565b600061299782611b6d565b91506129a283611b6d565b92508282026129b081611b6d565b915082820484148315176129c7576129c66124b2565b5b5092915050565b7f4e487b7100000000000000000000000000000000000000000000000000000000600052601260045260246000fd5b6000612a0882611b6d565b9150612a1383611b6d565b925082612a2357612a226129ce565b5b828204905092915050565b7f5061796f757420746f6f20736d616c6c00000000000000000000000000000000600082015250565b6000612a64601083611c2b565b9150612a6f82612a2e565b602082019050919050565b60006020820190508181036000830152612a9381612a57565b9050919050565b7f5469746c652069732072657175697265642e0000000000000000000000000000600082015250565b6000612ad0601283611c2b565b9150612adb82612a9a565b602082019050919050565b60006020820190508181036000830152612aff81612ac3565b9050919050565b7f4465736372697074696f6e2069732072657175697265642e0000000000000000600082015250565b6000612b3c601883611c2b565b9150612b4782612b06565b602082019050919050565b60006020820190508181036000830152612b6b81612b2f565b9050919050565b7f476f616c20616d6f756e74206d7573742062652067726561746572207468616e60008201527f207a65726f2e0000000000000000000000000000000000000000000000000000602082015250565b6000612bce602683611c2b565b9150612bd982612b72565b604082019050919050565b60006020820190508181036000830152612bfd81612bc1565b9050919050565b7f446561646c696e65206d7573742062652061206675747572652074696d652e00600082015250565b6000612c3a601f83611c2b565b9150612c4582612c04565b602082019050919050565b60006020820190508181036000830152612c6981612c2d565b9050919050565b60008190508160005260206000209050919050565b60006020601f8301049050919050565b600082821b905092915050565b600060088302612cd27fffffffffffffffffffffffffffffffffffffffffffffffffffffffffffffffff82612c95565b612cdc8683612c95565b95508019841693508086168417925050509392505050565b6000819050919050565b6000612d19612d14612d0f84611b6d565b612cf4565b611b6d565b9050919050565b6000819050919050565b612d3383612cfe565b612d47612d3f82612d20565b848454612ca2565b825550505050565b600090565b612d5c612d4f565b612d67818484612d2a565b505050565b5b81811015612d8b57612d80600082612d54565b600181019050612d6d565b5050565b601f821115612dd057612da181612c70565b612daa84612c85565b81016020851015612db9578190505b612dcd612dc585612c85565b830182612d6c565b50505b505050565b600082821c905092915050565b6000612df360001984600802612dd5565b1980831691505092915050565b6000612e0c8383612de2565b9150826002028217905092915050565b612e2582611c20565b67ffffffffffffffff811115612e3e57612e3d6121bc565b5b612e488254612481565b612e53828285612d8f565b600060209050601f831160018114612e865760008415612e74578287015190505b612e7e8582612e00565b865550612ee6565b601f198416612e9486612c70565b60005b82811015612ebc57848901518255600182019150602085019450602081019050612e97565b86831015612ed95784890151612ed5601f891682612de2565b8355505b6001600288020188555050505b505050505050565b60006080820190508181036000830152612f088187611c77565b9050612f176020830186611bd0565b612f246040830185611bd0565b612f316060830184611cbc565b9594505050505056fea2646970667358221220393d5d9987b01d7e6bb78cc178cbf39c3c94bca4e398e917fb0d18e8739ddde064736f6c63430008130033",
  "immutableReferences": {},
  "source": "// SPDX-License-Identifier: MIT\r\npragma solidity ^0.8.19;\r\n\r\ncontract DFund {\r\n    uint public projectCount = 0;   //    \r\n\r\n    enum ProjectStatus {    //   \r\n        FUNDRAISING,   // 0:  \r\n        IN_PROGRESS,    // 1:   \r\n        COMPLETED,     // 2:   \r\n        FAILED,        // 3:  (   )\r\n        CANCELLED      // 4:  \r\n    }\r\n\r\n    struct Project {    //   \r\n        uint id;\r\n        address creator;\r\n        string title;\r\n        string description;\r\n        uint goalAmount;              // : wei\r\n        uint deadline;                // Unix timestamp\r\n        bool expertReviewRequested;\r\n        bool isActive;\r\n        ProjectStatus status;\r\n    }\r\n\r\n    struct FundBalance {                  //    \r\n        uint totalDonated;               //   \r\n        uint transferredToCreator;       //    \r\n    }\r\n\r\n    mapping(uint => Project) public projects;\r\n    mapping(uint => FundBalance) public projectFunds;                         //   \r\n    mapping(uint => mapping(address => uint)) public donorBalances;           //    \r\n    mapping(uint => address[]) public projectDonors;                          //    \r\n    mapping(uint => mapping(address => bool)) public hasDonated;             //    \r\n\r\n    //   \r\n    event ProjectRegistered(\r\n        uint indexed id,\r\n        address indexed creator,\r\n        string title,\r\n        uint goalAmount,\r\n        uint deadline,\r\n        bool expertReviewRequested\r\n    );\r\n\r\n    //  \r\n    function registerProject(\r\n        string memory _title,\r\n        string memory _description,\r\n        uint _goalAmount,\r\n        uint _deadline,\r\n        bool _expertReviewRequested\r\n    ) public {\r\n        //     \r\n        require(bytes(_title).length > 0, \"Title is required.\");\r\n        require(bytes(_description).length > 0, \"Description is required.\");\r\n        require(_goalAmount > 0, \"Goal amount must be greater than zero.\");\r\n        require(_deadline > block.timestamp, \"Deadline must be a future time.\");\r\n\r\n        projectCount++;\r\n\r\n        projects[projectCount] = Project({\r\n            id: projectCount,\r\n            creator: msg.sender,\r\n            title: _title,\r\n            description: _description,\r\n            goalAmount: _goalAmount,\r\n            deadline: _deadline,\r\n            expertReviewRequested: _expertReviewRequested,\r\n            isActive: true,\r\n            status: ProjectStatus.FUNDRAISING   //      \r\n        });\r\n\r\n        emit ProjectRegistered(\r\n            projectCount,\r\n            msg.sender,\r\n            _title,\r\n            _goalAmount,\r\n            _deadline,\r\n            _expertReviewRequested\r\n        );\r\n    }\r\n\r\n    //  ID   \r\n    function getProject(uint _id) public view returns (\r\n    uint id,\r\n    address creator,\r\n    string memory title,\r\n    string memory description,\r\n    uint goalAmount,\r\n    uint deadline,\r\n    bool expertReviewRequested,\r\n    ProjectStatus status\r\n    ) {\r\n        Project memory p = projects[_id];\r\n        return (\r\n            p.id,\r\n            p.creator,\r\n            p.title,\r\n            p.description,\r\n            p.goalAmount,\r\n            p.deadline,\r\n            p.expertReviewRequested,\r\n            p.status\r\n        );\r\n    }\r\n\r\n    //   \r\n    function getAllProjects() public view returns (Project[] memory) {\r\n        Project[] memory result = new Project[](projectCount);\r\n        for (uint i = 1; i <= projectCount; i++) {\r\n            result[i - 1] = projects[i];\r\n        }\r\n        return result;\r\n    }\r\n\r\n    //  \r\n    function donateToProject(uint _projectId) external payable {\r\n        require(msg.value > 0, \"Must send ETH\");\r\n        require(projects[_projectId].isActive, \"Invalid project\");\r\n        require(projects[_projectId].status == ProjectStatus.FUNDRAISING, \"Project not fundraising\");\r\n\r\n        donorBalances[_projectId][msg.sender] += msg.value;                         //    \r\n        projectFunds[_projectId].totalDonated += msg.value;                         //    \r\n\r\n        if (!hasDonated[_projectId][msg.sender]) {                                  //       \r\n            projectDonors[_projectId].push(msg.sender);\r\n            hasDonated[_projectId][msg.sender] = true;\r\n        }\r\n    }\r\n\r\n    //      ( : 0 ~ 100)\r\n    function releaseFundsToCreator(uint _projectId, uint _percent) external {\r\n        require(_percent <= 100, \"Invalid percentage\");\r\n        Project storage project = projects[_projectId];\r\n        require(project.creator == msg.sender, \"Only creator can withdraw\");\r\n\r\n        FundBalance storage fund = projectFunds[_projectId];\r\n        uint available = fund.totalDonated - fund.transferredToCreator;\r\n        require(available > 0, \"No available funds\");\r\n\r\n        uint payout = (available * _percent) / 100;\r\n        require(payout > 0, \"Payout too small\");\r\n\r\n        address[] memory backers = projectDonors[_projectId];\r\n        for (uint i = 0; i < backers.length; i++) {\r\n            address donor = backers[i];\r\n            uint donorShare = donorBalances[_projectId][donor];\r\n            if (donorShare > 0) {\r\n                uint reduction = (donorShare * _percent) / 100;                   //     \r\n                donorBalances[_projectId][donor] -= reduction;\r\n            }\r\n        }\r\n\r\n        //   IN_PROGRESS   \r\n        if (project.status != ProjectStatus.IN_PROGRESS) {\r\n            project.status = ProjectStatus.IN_PROGRESS;\r\n    }\r\n\r\n        fund.transferredToCreator += payout;                                       //    \r\n        payable(project.creator).transfer(payout);                                 //   \r\n    }\r\n\r\n    //       \r\n    function getDonorBalance(uint _projectId, address _donor) public view returns (uint) {\r\n        return donorBalances[_projectId][_donor];\r\n    }\r\n\r\n    //    \r\n    function getTotalDonated(uint _projectId) public view returns (uint) {\r\n        return projectFunds[_projectId].totalDonated;\r\n        }\r\n\r\n    //     \r\n    function getRemainingFunds(uint _projectId) public view returns (uint) {\r\n        FundBalance memory f = projectFunds[_projectId];\r\n        return f.totalDonated - f.transferredToCreator;\r\n    }\r\n\r\n    // FAILED(3)  CANCELLED(4)     \r\n    function changeProjectStatusAndRefund(uint _projectId, uint8 newStatus) external {\r\n        require(newStatus == uint8(ProjectStatus.FAILED) || newStatus == uint8(ProjectStatus.CANCELLED), \"Only FAILED or CANCELLED allowed\");\r\n\r\n        Project storage project = projects[_projectId];\r\n        require(msg.sender == project.creator, \"Only creator can change status\");\r\n        require(project.isActive, \"Project already inactive\");\r\n\r\n        //  \r\n        project.status = ProjectStatus(newStatus);\r\n        project.isActive = false;\r\n\r\n        //  \r\n        address[] memory backers = projectDonors[_projectId];\r\n        for (uint i = 0; i < backers.length; i++) {\r\n            address donor = backers[i];\r\n            uint amount = donorBalances[_projectId][donor];\r\n            if (amount > 0) {\r\n                donorBalances[_projectId][donor] = 0;\r\n                payable(donor).transfer(amount);\r\n            }\r\n        }\r\n    }\r\n\r\n    //              . ,   .\r\n    //          .\r\n    // ,     (:  1%) ,\r\n    //           ?\r\n\r\n    //        /utils/statusUtils.js   .\r\n    //   ,   ProjectDetail.js        .\r\n\r\n}\r\n",
  "sourcePath": "D:\\D-Fund123\\src\\contracts\\DFund.sol",
  "compiler": {
    "name": "solc",
    "version": "0.8.19+commit.7dd6d404.Emscripten.clang"
  },
  "schemaVersion": "3.4.16",
  "updatedAt": "2025-05-18T12:10:46.419Z",
  "networkType": "ethereum",
  "devdoc": {
    "kind": "dev",
    "methods": {},
    "version": 1
  },
  "userdoc": {
    "kind": "user",
    "methods": {},
    "version": 1
  }
}