{
  "contractName": "DFund",
  "abi": [
    {
      "anonymous": false,
      "inputs": [
        {
          "indexed": true,
          "internalType": "uint256",
          "name": "id",
          "type": "uint256"
        },
        {
          "indexed": true,
          "internalType": "address",
          "name": "creator",
          "type": "address"
        },
        {
          "indexed": false,
          "internalType": "string",
          "name": "title",
          "type": "string"
        },
        {
          "indexed": false,
          "internalType": "uint256",
          "name": "goalAmount",
          "type": "uint256"
        },
        {
          "indexed": false,
          "internalType": "uint256",
          "name": "deadline",
          "type": "uint256"
        },
        {
          "indexed": false,
          "internalType": "bool",
          "name": "expertReviewRequested",
          "type": "bool"
        }
      ],
      "name": "ProjectRegistered",
      "type": "event"
    },
    {
      "inputs": [
        {
          "internalType": "uint256",
          "name": "",
          "type": "uint256"
        }
      ],
      "name": "projectBalance",
      "outputs": [
        {
          "internalType": "uint256",
          "name": "",
          "type": "uint256"
        }
      ],
      "stateMutability": "view",
      "type": "function",
      "constant": true
    },
    {
      "inputs": [],
      "name": "projectCount",
      "outputs": [
        {
          "internalType": "uint256",
          "name": "",
          "type": "uint256"
        }
      ],
      "stateMutability": "view",
      "type": "function",
      "constant": true
    },
    {
      "inputs": [
        {
          "internalType": "uint256",
          "name": "",
          "type": "uint256"
        }
      ],
      "name": "projects",
      "outputs": [
        {
          "internalType": "uint256",
          "name": "id",
          "type": "uint256"
        },
        {
          "internalType": "address",
          "name": "creator",
          "type": "address"
        },
        {
          "internalType": "string",
          "name": "title",
          "type": "string"
        },
        {
          "internalType": "string",
          "name": "description",
          "type": "string"
        },
        {
          "internalType": "uint256",
          "name": "goalAmount",
          "type": "uint256"
        },
        {
          "internalType": "uint256",
          "name": "deadline",
          "type": "uint256"
        },
        {
          "internalType": "bool",
          "name": "expertReviewRequested",
          "type": "bool"
        },
        {
          "internalType": "bool",
          "name": "isActive",
          "type": "bool"
        }
      ],
      "stateMutability": "view",
      "type": "function",
      "constant": true
    },
    {
      "inputs": [
        {
          "internalType": "string",
          "name": "_title",
          "type": "string"
        },
        {
          "internalType": "string",
          "name": "_description",
          "type": "string"
        },
        {
          "internalType": "uint256",
          "name": "_goalAmount",
          "type": "uint256"
        },
        {
          "internalType": "uint256",
          "name": "_deadline",
          "type": "uint256"
        },
        {
          "internalType": "bool",
          "name": "_expertReviewRequested",
          "type": "bool"
        }
      ],
      "name": "registerProject",
      "outputs": [],
      "stateMutability": "nonpayable",
      "type": "function"
    },
    {
      "inputs": [
        {
          "internalType": "uint256",
          "name": "_id",
          "type": "uint256"
        }
      ],
      "name": "getProject",
      "outputs": [
        {
          "internalType": "uint256",
          "name": "id",
          "type": "uint256"
        },
        {
          "internalType": "address",
          "name": "creator",
          "type": "address"
        },
        {
          "internalType": "string",
          "name": "title",
          "type": "string"
        },
        {
          "internalType": "string",
          "name": "description",
          "type": "string"
        },
        {
          "internalType": "uint256",
          "name": "goalAmount",
          "type": "uint256"
        },
        {
          "internalType": "uint256",
          "name": "deadline",
          "type": "uint256"
        },
        {
          "internalType": "bool",
          "name": "expertReviewRequested",
          "type": "bool"
        }
      ],
      "stateMutability": "view",
      "type": "function",
      "constant": true
    },
    {
      "inputs": [],
      "name": "getAllProjects",
      "outputs": [
        {
          "components": [
            {
              "internalType": "uint256",
              "name": "id",
              "type": "uint256"
            },
            {
              "internalType": "address",
              "name": "creator",
              "type": "address"
            },
            {
              "internalType": "string",
              "name": "title",
              "type": "string"
            },
            {
              "internalType": "string",
              "name": "description",
              "type": "string"
            },
            {
              "internalType": "uint256",
              "name": "goalAmount",
              "type": "uint256"
            },
            {
              "internalType": "uint256",
              "name": "deadline",
              "type": "uint256"
            },
            {
              "internalType": "bool",
              "name": "expertReviewRequested",
              "type": "bool"
            },
            {
              "internalType": "bool",
              "name": "isActive",
              "type": "bool"
            }
          ],
          "internalType": "struct DFund.Project[]",
          "name": "",
          "type": "tuple[]"
        }
      ],
      "stateMutability": "view",
      "type": "function",
      "constant": true
    },
    {
      "inputs": [
        {
          "internalType": "uint256",
          "name": "_projectId",
          "type": "uint256"
        }
      ],
      "name": "donateToProject",
      "outputs": [],
      "stateMutability": "payable",
      "type": "function",
      "payable": true
    }
  ],
  "bytecode": "0x60806040526000805534801561001457600080fd5b50611a24806100246000396000f3fe6080604052600436106100705760003560e01c806380d038291161004e57806380d0382914610100578063d216deea1461012b578063f0f3f2c814610154578063fb3490781461019757610070565b8063107046bd1461007557806336fbad26146100b957806356adb06f146100e4575b600080fd5b34801561008157600080fd5b5061009c60048036038101906100979190610c96565b6101d4565b6040516100b0989796959493929190610dbe565b60405180910390f35b3480156100c557600080fd5b506100ce610366565b6040516100db9190610e4a565b60405180910390f35b6100fe60048036038101906100f99190610c96565b61036c565b005b34801561010c57600080fd5b5061011561043f565b6040516101229190611055565b60405180910390f35b34801561013757600080fd5b50610152600480360381019061014d91906111d8565b6106dc565b005b34801561016057600080fd5b5061017b60048036038101906101769190610c96565b61099d565b60405161018e979695949392919061128b565b60405180910390f35b3480156101a357600080fd5b506101be60048036038101906101b99190610c96565b610bd5565b6040516101cb9190610e4a565b60405180910390f35b60016020528060005260406000206000915090508060000154908060010160009054906101000a900473ffffffffffffffffffffffffffffffffffffffff169080600201805461022390611337565b80601f016020809104026020016040519081016040528092919081815260200182805461024f90611337565b801561029c5780601f106102715761010080835404028352916020019161029c565b820191906000526020600020905b81548152906001019060200180831161027f57829003601f168201915b5050505050908060030180546102b190611337565b80601f01602080910402602001604051908101604052809291908181526020018280546102dd90611337565b801561032a5780601f106102ff5761010080835404028352916020019161032a565b820191906000526020600020905b81548152906001019060200180831161030d57829003601f168201915b5050505050908060040154908060050154908060060160009054906101000a900460ff16908060060160019054906101000a900460ff16905088565b60005481565b600034116103af576040517f08c379a00000000000000000000000000000000000000000000000000000000081526004016103a6906113b4565b60405180910390fd5b6001600082815260200190815260200160002060060160019054906101000a900460ff16610412576040517f08c379a000000000000000000000000000000000000000000000000000000000815260040161040990611420565b60405180910390fd5b34600260008381526020019081526020016000206000828254610435919061146f565b9250508190555050565b60606000805467ffffffffffffffff81111561045e5761045d611081565b5b60405190808252806020026020018201604052801561049757816020015b610484610bed565b81526020019060019003908161047c5790505b5090506000600190505b60005481116106d4576001600082815260200190815260200160002060405180610100016040529081600082015481526020016001820160009054906101000a900473ffffffffffffffffffffffffffffffffffffffff1673ffffffffffffffffffffffffffffffffffffffff1673ffffffffffffffffffffffffffffffffffffffff16815260200160028201805461053990611337565b80601f016020809104026020016040519081016040528092919081815260200182805461056590611337565b80156105b25780601f10610587576101008083540402835291602001916105b2565b820191906000526020600020905b81548152906001019060200180831161059557829003601f168201915b505050505081526020016003820180546105cb90611337565b80601f01602080910402602001604051908101604052809291908181526020018280546105f790611337565b80156106445780601f1061061957610100808354040283529160200191610644565b820191906000526020600020905b81548152906001019060200180831161062757829003601f168201915b5050505050815260200160048201548152602001600582015481526020016006820160009054906101000a900460ff161515151581526020016006820160019054906101000a900460ff161515151581525050826001836106a591906114a3565b815181106106b6576106b56114d7565b5b602002602001018190525080806106cc90611506565b9150506104a1565b508091505090565b6000855111610720576040517f08c379a00000000000000000000000000000000000000000000000000000000081526004016107179061159a565b60405180910390fd5b6000845111610764576040517f08c379a000000000000000000000000000000000000000000000000000000000815260040161075b90611606565b60405180910390fd5b600083116107a7576040517f08c379a000000000000000000000000000000000000000000000000000000000815260040161079e90611698565b60405180910390fd5b4282116107e9576040517f08c379a00000000000000000000000000000000000000000000000000000000081526004016107e090611704565b60405180910390fd5b6000808154809291906107fb90611506565b919050555060405180610100016040528060005481526020013373ffffffffffffffffffffffffffffffffffffffff16815260200186815260200185815260200184815260200183815260200182151581526020016001151581525060016000805481526020019081526020016000206000820151816000015560208201518160010160006101000a81548173ffffffffffffffffffffffffffffffffffffffff021916908373ffffffffffffffffffffffffffffffffffffffff16021790555060408201518160020190816108d191906118d0565b5060608201518160030190816108e791906118d0565b506080820151816004015560a0820151816005015560c08201518160060160006101000a81548160ff02191690831515021790555060e08201518160060160016101000a81548160ff0219169083151502179055509050503373ffffffffffffffffffffffffffffffffffffffff166000547f5d98a4da9d3933cce60386248780b2b24866c65e35cc3eac58c332f0df98d7c48786868660405161098e94939291906119a2565b60405180910390a35050505050565b600080606080600080600080600160008a815260200190815260200160002060405180610100016040529081600082015481526020016001820160009054906101000a900473ffffffffffffffffffffffffffffffffffffffff1673ffffffffffffffffffffffffffffffffffffffff1673ffffffffffffffffffffffffffffffffffffffff168152602001600282018054610a3890611337565b80601f0160208091040260200160405190810160405280929190818152602001828054610a6490611337565b8015610ab15780601f10610a8657610100808354040283529160200191610ab1565b820191906000526020600020905b815481529060010190602001808311610a9457829003601f168201915b50505050508152602001600382018054610aca90611337565b80601f0160208091040260200160405190810160405280929190818152602001828054610af690611337565b8015610b435780601f10610b1857610100808354040283529160200191610b43565b820191906000526020600020905b815481529060010190602001808311610b2657829003601f168201915b5050505050815260200160048201548152602001600582015481526020016006820160009054906101000a900460ff161515151581526020016006820160019054906101000a900460ff1615151515815250509050806000015181602001518260400151836060015184608001518560a001518660c00151975097509750975097509750975050919395979092949650565b60026020528060005260406000206000915090505481565b60405180610100016040528060008152602001600073ffffffffffffffffffffffffffffffffffffffff168152602001606081526020016060815260200160008152602001600081526020016000151581526020016000151581525090565b6000604051905090565b600080fd5b600080fd5b6000819050919050565b610c7381610c60565b8114610c7e57600080fd5b50565b600081359050610c9081610c6a565b92915050565b600060208284031215610cac57610cab610c56565b5b6000610cba84828501610c81565b91505092915050565b610ccc81610c60565b82525050565b600073ffffffffffffffffffffffffffffffffffffffff82169050919050565b6000610cfd82610cd2565b9050919050565b610d0d81610cf2565b82525050565b600081519050919050565b600082825260208201905092915050565b60005b83811015610d4d578082015181840152602081019050610d32565b60008484015250505050565b6000601f19601f8301169050919050565b6000610d7582610d13565b610d7f8185610d1e565b9350610d8f818560208601610d2f565b610d9881610d59565b840191505092915050565b60008115159050919050565b610db881610da3565b82525050565b600061010082019050610dd4600083018b610cc3565b610de1602083018a610d04565b8181036040830152610df38189610d6a565b90508181036060830152610e078188610d6a565b9050610e166080830187610cc3565b610e2360a0830186610cc3565b610e3060c0830185610daf565b610e3d60e0830184610daf565b9998505050505050505050565b6000602082019050610e5f6000830184610cc3565b92915050565b600081519050919050565b600082825260208201905092915050565b6000819050602082019050919050565b610e9a81610c60565b82525050565b610ea981610cf2565b82525050565b600082825260208201905092915050565b6000610ecb82610d13565b610ed58185610eaf565b9350610ee5818560208601610d2f565b610eee81610d59565b840191505092915050565b610f0281610da3565b82525050565b600061010083016000830151610f216000860182610e91565b506020830151610f346020860182610ea0565b5060408301518482036040860152610f4c8282610ec0565b91505060608301518482036060860152610f668282610ec0565b9150506080830151610f7b6080860182610e91565b5060a0830151610f8e60a0860182610e91565b5060c0830151610fa160c0860182610ef9565b5060e0830151610fb460e0860182610ef9565b508091505092915050565b6000610fcb8383610f08565b905092915050565b6000602082019050919050565b6000610feb82610e65565b610ff58185610e70565b93508360208202850161100785610e81565b8060005b8581101561104357848403895281516110248582610fbf565b945061102f83610fd3565b925060208a0199505060018101905061100b565b50829750879550505050505092915050565b6000602082019050818103600083015261106f8184610fe0565b905092915050565b600080fd5b600080fd5b7f4e487b7100000000000000000000000000000000000000000000000000000000600052604160045260246000fd5b6110b982610d59565b810181811067ffffffffffffffff821117156110d8576110d7611081565b5b80604052505050565b60006110eb610c4c565b90506110f782826110b0565b919050565b600067ffffffffffffffff82111561111757611116611081565b5b61112082610d59565b9050602081019050919050565b82818337600083830152505050565b600061114f61114a846110fc565b6110e1565b90508281526020810184848401111561116b5761116a61107c565b5b61117684828561112d565b509392505050565b600082601f83011261119357611192611077565b5b81356111a384826020860161113c565b91505092915050565b6111b581610da3565b81146111c057600080fd5b50565b6000813590506111d2816111ac565b92915050565b600080600080600060a086880312156111f4576111f3610c56565b5b600086013567ffffffffffffffff81111561121257611211610c5b565b5b61121e8882890161117e565b955050602086013567ffffffffffffffff81111561123f5761123e610c5b565b5b61124b8882890161117e565b945050604061125c88828901610c81565b935050606061126d88828901610c81565b925050608061127e888289016111c3565b9150509295509295909350565b600060e0820190506112a0600083018a610cc3565b6112ad6020830189610d04565b81810360408301526112bf8188610d6a565b905081810360608301526112d38187610d6a565b90506112e26080830186610cc3565b6112ef60a0830185610cc3565b6112fc60c0830184610daf565b98975050505050505050565b7f4e487b7100000000000000000000000000000000000000000000000000000000600052602260045260246000fd5b6000600282049050600182168061134f57607f821691505b60208210810361136257611361611308565b5b50919050565b7f4d7573742073656e642045544800000000000000000000000000000000000000600082015250565b600061139e600d83610d1e565b91506113a982611368565b602082019050919050565b600060208201905081810360008301526113cd81611391565b9050919050565b7f496e76616c69642070726f6a6563740000000000000000000000000000000000600082015250565b600061140a600f83610d1e565b9150611415826113d4565b602082019050919050565b60006020820190508181036000830152611439816113fd565b9050919050565b7f4e487b7100000000000000000000000000000000000000000000000000000000600052601160045260246000fd5b600061147a82610c60565b915061148583610c60565b925082820190508082111561149d5761149c611440565b5b92915050565b60006114ae82610c60565b91506114b983610c60565b92508282039050818111156114d1576114d0611440565b5b92915050565b7f4e487b7100000000000000000000000000000000000000000000000000000000600052603260045260246000fd5b600061151182610c60565b91507fffffffffffffffffffffffffffffffffffffffffffffffffffffffffffffffff820361154357611542611440565b5b600182019050919050565b7f5469746c652069732072657175697265642e0000000000000000000000000000600082015250565b6000611584601283610d1e565b915061158f8261154e565b602082019050919050565b600060208201905081810360008301526115b381611577565b9050919050565b7f4465736372697074696f6e2069732072657175697265642e0000000000000000600082015250565b60006115f0601883610d1e565b91506115fb826115ba565b602082019050919050565b6000602082019050818103600083015261161f816115e3565b9050919050565b7f476f616c20616d6f756e74206d7573742062652067726561746572207468616e60008201527f207a65726f2e0000000000000000000000000000000000000000000000000000602082015250565b6000611682602683610d1e565b915061168d82611626565b604082019050919050565b600060208201905081810360008301526116b181611675565b9050919050565b7f446561646c696e65206d7573742062652061206675747572652074696d652e00600082015250565b60006116ee601f83610d1e565b91506116f9826116b8565b602082019050919050565b6000602082019050818103600083015261171d816116e1565b9050919050565b60008190508160005260206000209050919050565b60006020601f8301049050919050565b600082821b905092915050565b6000600883026117867fffffffffffffffffffffffffffffffffffffffffffffffffffffffffffffffff82611749565b6117908683611749565b95508019841693508086168417925050509392505050565b6000819050919050565b60006117cd6117c86117c384610c60565b6117a8565b610c60565b9050919050565b6000819050919050565b6117e7836117b2565b6117fb6117f3826117d4565b848454611756565b825550505050565b600090565b611810611803565b61181b8184846117de565b505050565b5b8181101561183f57611834600082611808565b600181019050611821565b5050565b601f8211156118845761185581611724565b61185e84611739565b8101602085101561186d578190505b61188161187985611739565b830182611820565b50505b505050565b600082821c905092915050565b60006118a760001984600802611889565b1980831691505092915050565b60006118c08383611896565b9150826002028217905092915050565b6118d982610d13565b67ffffffffffffffff8111156118f2576118f1611081565b5b6118fc8254611337565b611907828285611843565b600060209050601f83116001811461193a5760008415611928578287015190505b61193285826118b4565b86555061199a565b601f19841661194886611724565b60005b828110156119705784890151825560018201915060208501945060208101905061194b565b8683101561198d5784890151611989601f891682611896565b8355505b6001600288020188555050505b505050505050565b600060808201905081810360008301526119bc8187610d6a565b90506119cb6020830186610cc3565b6119d86040830185610cc3565b6119e56060830184610daf565b9594505050505056fea2646970667358221220b8f9dc863de577c5343723d2eff1a6280eabc52c29e3a7a8903422ce1e5fff7864736f6c63430008130033",
  "immutableReferences": {},
  "source": "// SPDX-License-Identifier: MIT\r\npragma solidity ^0.8.19;\r\n\r\ncontract DFund {\r\n    uint public projectCount = 0;\r\n\r\n    struct Project {\r\n        uint id;\r\n        address creator;\r\n        string title;\r\n        string description;\r\n        uint goalAmount;              // : wei\r\n        uint deadline;                // Unix timestamp\r\n        bool expertReviewRequested;\r\n        bool isActive;\r\n    }\r\n\r\n    mapping(uint => Project) public projects;\r\n    mapping(uint => uint) public projectBalance;\r\n\r\n    event ProjectRegistered(\r\n        uint indexed id,\r\n        address indexed creator,\r\n        string title,\r\n        uint goalAmount,\r\n        uint deadline,\r\n        bool expertReviewRequested\r\n    );\r\n\r\n    function registerProject(\r\n        string memory _title,\r\n        string memory _description,\r\n        uint _goalAmount,\r\n        uint _deadline,\r\n        bool _expertReviewRequested\r\n    ) public {\r\n        require(bytes(_title).length > 0, \"Title is required.\");\r\n        require(bytes(_description).length > 0, \"Description is required.\");\r\n        require(_goalAmount > 0, \"Goal amount must be greater than zero.\");\r\n        require(_deadline > block.timestamp, \"Deadline must be a future time.\");\r\n\r\n        projectCount++;\r\n\r\n        projects[projectCount] = Project({\r\n            id: projectCount,\r\n            creator: msg.sender,\r\n            title: _title,\r\n            description: _description,\r\n            goalAmount: _goalAmount,\r\n            deadline: _deadline,\r\n            expertReviewRequested: _expertReviewRequested,\r\n            isActive: true\r\n        });\r\n\r\n        emit ProjectRegistered(\r\n            projectCount,\r\n            msg.sender,\r\n            _title,\r\n            _goalAmount,\r\n            _deadline,\r\n            _expertReviewRequested\r\n        );\r\n    }\r\n\r\n    //   ()\r\n    function getProject(uint _id) public view returns (\r\n    uint id,\r\n    address creator,\r\n    string memory title,\r\n    string memory description,\r\n    uint goalAmount,\r\n    uint deadline,\r\n    bool expertReviewRequested\r\n    ) {\r\n        Project memory p = projects[_id];\r\n        return (\r\n            p.id,\r\n            p.creator,\r\n            p.title,\r\n            p.description,\r\n            p.goalAmount,\r\n            p.deadline,\r\n            p.expertReviewRequested\r\n        );\r\n    }\r\n\r\n    function getAllProjects() public view returns (Project[] memory) {\r\n        Project[] memory result = new Project[](projectCount);\r\n        for (uint i = 1; i <= projectCount; i++) {\r\n            result[i - 1] = projects[i];\r\n        }\r\n        return result;\r\n    }\r\n\r\n    function donateToProject(uint _projectId) external payable {\r\n        require(msg.value > 0, \"Must send ETH\");\r\n        require(projects[_projectId].isActive, \"Invalid project\");\r\n        projectBalance[_projectId] += msg.value;\r\n    }\r\n\r\n}\r\n",
  "sourcePath": "C:\\DApp\\ktw\\D-Fund\\src\\contracts\\DFund.sol",
  "compiler": {
    "name": "solc",
    "version": "0.8.19+commit.7dd6d404.Emscripten.clang"
  },
  "schemaVersion": "3.4.16",
  "updatedAt": "2025-05-13T12:13:23.147Z",
  "networkType": "ethereum",
  "devdoc": {
    "kind": "dev",
    "methods": {},
    "version": 1
  },
  "userdoc": {
    "kind": "user",
    "methods": {},
    "version": 1
  }
}