{
  "contractName": "DonateEther",
  "abi": [
    {
      "inputs": [
        {
          "internalType": "address",
          "name": "_platformAccount",
          "type": "address"
        }
      ],
      "stateMutability": "nonpayable",
      "type": "constructor"
    },
    {
      "inputs": [],
      "name": "platformAccount",
      "outputs": [
        {
          "internalType": "address",
          "name": "",
          "type": "address"
        }
      ],
      "stateMutability": "view",
      "type": "function",
      "constant": true
    },
    {
      "inputs": [],
      "name": "donateEther",
      "outputs": [],
      "stateMutability": "payable",
      "type": "function",
      "payable": true
    }
  ],
  "bytecode": "0x608060405234801561001057600080fd5b50604051610359380380610359833981810160405281019061003291906100db565b806000806101000a81548173ffffffffffffffffffffffffffffffffffffffff021916908373ffffffffffffffffffffffffffffffffffffffff16021790555050610108565b600080fd5b600073ffffffffffffffffffffffffffffffffffffffff82169050919050565b60006100a88261007d565b9050919050565b6100b88161009d565b81146100c357600080fd5b50565b6000815190506100d5816100af565b92915050565b6000602082840312156100f1576100f0610078565b5b60006100ff848285016100c6565b91505092915050565b610242806101176000396000f3fe6080604052600436106100295760003560e01c8063863451dd1461002e57806397849eb314610038575b600080fd5b610036610063565b005b34801561004457600080fd5b5061004d61010f565b60405161005a9190610174565b60405180910390f35b600034116100a6576040517f08c379a000000000000000000000000000000000000000000000000000000000815260040161009d906101ec565b60405180910390fd5b60008054906101000a900473ffffffffffffffffffffffffffffffffffffffff1673ffffffffffffffffffffffffffffffffffffffff166108fc349081150290604051600060405180830381858888f1935050505015801561010c573d6000803e3d6000fd5b50565b60008054906101000a900473ffffffffffffffffffffffffffffffffffffffff1681565b600073ffffffffffffffffffffffffffffffffffffffff82169050919050565b600061015e82610133565b9050919050565b61016e81610153565b82525050565b60006020820190506101896000830184610165565b92915050565b600082825260208201905092915050565b7f53656e64206d6f7265207468616e2030204554482e0000000000000000000000600082015250565b60006101d660158361018f565b91506101e1826101a0565b602082019050919050565b60006020820190508181036000830152610205816101c9565b905091905056fea2646970667358221220994d460a63bfa718efe7c0659b0ab64fd031f5de2acb7e8c9fb15be1eb718e9064736f6c63430008130033",
  "immutableReferences": {},
  "source": "// SPDX-License-Identifier: MIT\r\npragma solidity ^0.8.19;\r\n\r\ncontract DonateEther {\r\n    address public platformAccount;\r\n\r\n    //    \r\n    constructor(address _platformAccount) {\r\n        platformAccount = _platformAccount;\r\n    }\r\n\r\n    //  \r\n    function donateEther() external payable {\r\n        //   platformAccount \r\n        require(msg.value > 0, \"Send more than 0 ETH.\");\r\n        payable(platformAccount).transfer(msg.value);\r\n    }\r\n}",
  "sourcePath": "C:\\DApp\\bsb\\D-Fund\\src\\contracts\\donateEther.sol",
  "compiler": {
    "name": "solc",
    "version": "0.8.19+commit.7dd6d404.Emscripten.clang"
  },
  "schemaVersion": "3.4.16",
  "updatedAt": "2025-05-07T07:15:49.361Z",
  "networkType": "ethereum",
  "devdoc": {
    "kind": "dev",
    "methods": {},
    "version": 1
  },
  "userdoc": {
    "kind": "user",
    "methods": {},
    "version": 1
  }
}